:100000000C94F2030C94E8190C9439040C94390400
:100010000C9439040C9439040C9439040C9439046C
:100020000C9439040C9439040C94AC2E0C94802F4D
:100030000C9447270C9439040C9439040C9439041B
:100040000C9439040C9439040C9439040C9439043C
:100050000C9439040C9492270C9439040C943904B0
:100060000C9439040C9439040C9439040C9439041C
:100070000C9439040C9439040C9439040C9439040C
:100080000C9439040C9439040C9439040C943904FC
:100090000C9439040C9439040C9439040C943904EC
:1000A0000C9439040C9439040C94390468747470F9
:1000B000733A2F2F73746172742E6475636B647559
:1000C000636B676F2E636F6D0A000102E0610103CD
:1000D000E00102E0630103E000514D4B2069732011
:1000E000617765736F6D652E0001E0010502050201
:1000F000E0012002200001E00105020502E0011FED
:10010000021F0001E00105020502E0011E021E00BF
:1001100001E00105020502E00127022700165C1E2E
:10012000001F0020002100220000002B0014001AF4
:100130000008001500170000000157040016000712
:100140000009000A004E00E2001D001B0006001915
:100150000005004B00175CE30046003100E000287A
:10016000624C0001532700260025002400230000D4
:10017000000253130012000C0018001C00000003C2
:100180005333000F000E000D000B004D00E600522F
:100190000037003600100011004A004F0051005097
:1001A000003800E4002C722A0001003A003B003CB9
:1001B000003D003E00010001001E021F022F023020
:1001C00002310201000100320021022F0030002D17
:1001D0000201000100220223022602270235020149
:1001E0000001000100010001000100010001000107
:1001F0000043004200410040003F00010001005662
:1002000000610060005F0054000100000057005EC4
:10021000005D005C0055000100E60058005B005ADC
:10022000005900530001000000580063006200679D
:1002300000010001000030013003300430010001F2
:1002400000010000000000F0000000F900000001C3
:10025000000000F200F100F300FA000000010000CD
:10026000000000000000000000000001000100008C
:1002700000F400F50001000100010001000100018F
:100280000001000100010001000100000000005217
:1002900000000000000100000000004F005100506D
:1002A000000000010000000000000000000000004D
:1002B000000100000000000000000000000100013B
:1002C0000001000100010001000100010001000126
:1002D0000001000100010001000100010001000116
:1002E0000001000100010001000100010001000106
:1002F00000010001000100010001000100010001F6
:10030000002C002C002A0001000100010001000166
:1003100000010001000100010001000100010001D5
:1003200000010001000100010001000100010001C5
:1003300000010001000100010001000100010001B5
:1003400000010001000100010028004C0001003AFA
:10035000003B003C003D003E00C75C0000005CCF5D
:100360005CC45CC55CC85C000000000000000000CC
:10037000000000000001000000000000000000007C
:10038000000000000001000000000000000000006C
:10039000000000010043004200410040003F00CA4D
:1003A0005C010000000000CB5CCC5CC95C0000007C
:1003B000000000000000000000000001000000003C
:1003C000000000000000000000000000000000002D
:1003D000000000000000000000000000000000001D
:1003E000002A2B2800000000000000000000000090
:1003F0000000000029000000002C1E3420212224CF
:10040000342627252E362D3738271E1F202122235C
:100410002425263333362E37381F040506070809EE
:100420000A0B0C0D0E0F10111213141516171819B4
:100430001A1B1C1D2F3130232D3504050607080912
:100440000A0B0C0D0E0F1011121314151617181994
:100450001A1B1C1D2F3130354C000000000000001D
:10046000000000000000000000000000007E0F00FF
:10047000D4FFFFFFC70000007832190A00047F3F55
:100480001F643214643214783C1E1E140A052223A1
:10049000252628292A2C2D2F3032333536383A3B61
:1004A0003D3E4042434547494A4C4E5051535557B3
:1004B000595A5C5E6062646668696B6D6F717375D2
:1004C00077797B7D7F81838587898A8C8E909294D2
:1004D00096989A9C9E9FA1A3A5A7A8AAACAEAFB1DF
:1004E000B3B4B6B8B9BBBCBEBFC1C2C3C5C6C7C929
:1004F000CACBCCCDCED0D1D2D2D3D4D5D6D7D7D8E3
:10050000D9D9DADADBDBDBDCDCDCDCDCDDDDDDDD34
:10051000DCDCDCDCDCDBDBDBDADAD9D9D8D7D7D63C
:10052000D5D4D3D2D2D1D0CECDCCCBCAC9C7C6C5F3
:10053000C3C2C1BFBEBCBBB9B8B6B4B3B1AFAEAC39
:10054000AAA8A7A5A3A19F9E9C9A98969492908EE4
:100550008C8A89878583817F7D7B79777573716FBD
:100560006D6B6968666462605E5C5A595755535199
:10057000504E4C4A4947454342403E3D3B3A38364F
:10058000353332302F2D2C2A292826252322FFAA65
:100590007F55400001010101010101010102020238
:1005A000020202020202030303030303030304041F
:1005B00004040404040505050505060606060607E9
:1005C0000707070708080808090909090A0A0A0BA2
:1005D0000B0B0C0C0C0D0D0D0E0E0E0F0F0F101043
:1005E00011111112121313141415151616171718CA
:1005F0001819191A1A1B1B1C1D1D1E1E1F20202135
:100600002222232424252626272829292A2B2C2D7B
:100610002D2E2F30313232333435363738393A3B9C
:100620003C3D3E3F404142434445464748494A4C91
:100630004D4E4F50515354555658595A5B5D5E5F5D
:10064000616264656668696B6C6D6F7072737577F3
:10065000787A7B7D7E8082838587888A8C8E8F9155
:10066000939596989A9C9EA0A2A3A5A7A9ABADAF7F
:10067000B1B3B5B7BABCBEC0C2C4C6C9CBCDCFD169
:10068000D4D6D8DBDDDFE2E4E7E9EBEEF0F3F5F812
:10069000FAFDFF2603540068006500200052006543
:1006A0000064006F00780020004B00650079006254
:1006B000006F0061007200640000001403460061D6
:1006C000006C006200610074006500630068000057
:1006D000000403090409023B00020100A0FA090416
:1006E0000000010301010009211101000122400065
:1006F0000705810308000A09040100010300000046
:100700000921110100012281000705820320000A4E
:100710001201100100000008444D44520001010282
:10072000000105010902A10185020901A1000509D5
:10073000190129051500250195057501810295010D
:10074000750381010501093009311581257F950265
:100750007508810609381581257F95017508810680
:10076000050C0A38021581257F950175088106C0A0
:10077000C005010980A101850319012AB7001501EF
:1007800026B700950175108100C0050C0901A10173
:10079000850419012AA002150126A00295017510F1
:1007A0008100C005010906A101050719E029E71527
:1007B00000250195087501810295017508810105E3
:1007C00007190029FF150026FF009506750881000E
:1007D0000508190129059505750191029501750313
:1007E0009101C00011241FBECFEFDAE0DEBFCDBF04
:1007F00004B603FE27C08091960390919703A091C1
:100800009803B09199038730904BA740B04BD1F437
:1008100010929603109297031092980310929903E6
:1008200014BE84B7877F84BF0FB6F894A8958091D3
:100830006000886180936000109260000FBEE0E06D
:10084000F8E3099512E0A0E0B1E0E6EBF5E602C0BE
:1008500005900D92A631B107D9F723E0A6E1B2E0E9
:1008600001C01D92A639B207E1F70E94EE2B0C944D
:100870009D320C9400000C94FC08FC01613079F06E
:10088000662339F0623089F06330A9F090E080E0AF
:10089000089582818823D1F380E191E008958281D7
:1008A0008823A1F383E091E008958281882371F386
:1008B00086EF90E008958281882341F389EE90E0ED
:1008C000089580919502882309F4A2C08091930233
:1008D000909194020E948327893E934008F498C027
:1008E000109295020E94D2188091890290918A02FA
:1008F0000997E1F480918B0290918C0220918D02F6
:1009000030918E02822B932B20918F023091900296
:10091000822B932B2091910230919202822B932B68
:10092000892B69F589ED90E00E947006809189021B
:1009300090918A02079719F580918B0290918C0211
:10094000079709F065C080918D0290918E022091E9
:100950008F0230919002822B932B20919102309143
:100960009202822B932B892BE1F58AEC90E00E9476
:1009700070068091890290918A02079759F18091BF
:10098000890290918A02049709F042C080918B02FB
:1009900090918C024697E1F580918D0290918E02A4
:1009A00020918F0230919002822B932B2091910203
:1009B00030919202822B932B892B51F583EE0E946A
:1009C0003A1C86E10E943A1C86E10E94D11C83EE0B
:1009D0000C94D11C80918B0290918C02079709F0A6
:1009E000089580918D0290918E02469789F48091AE
:1009F0008F02909190022091910230919202822B6D
:100A0000932B892B29F48CEA90E00E947006B7CFD3
:100A10000895CF93DF939C013A9521153F4168F5E6
:100A2000EC01CC27D170DC01AA27B270AC014427BD
:100A300054709C012227387094FF11C080E1CD2BA7
:100A400009F480E0AB2B09F08062452B09F080644B
:100A5000232B09F08068FB01DF91CF91099481E09D
:100A6000CD2B09F480E0AB2B09F08260452B09F017
:100A70008460232B81F38860EECFDF91CF910895BE
:100A8000CF93DF93EC01805E9109089720F060EA34
:100A90007FE1209711F46AE37DE1CE010E94090510
:100AA0008C2FDF91CF910C943A1CCF93DF93EC0104
:100AB0000E94D11CCE01805E9109089720F067EA60
:100AC0007FE1209711F461E47DE1CE01DF91CF91C8
:100AD0000C94090581E0089581E008950C946C055B
:100AE00008950C9470051F93CF93DF9300D000D02E
:100AF0000F92CDB7DEB749835A836B833091AA0238
:100B000089819A8131111DC06623B9F02223A9F091
:100B10000E94AE24182F682F89819A810E945A243E
:100B200069817A81812F0F900F900F900F900F9015
:100B3000DF91CF911F910C94F1060E948624182F0B
:100B4000EFCF0E94AE2469817A81EDCFFC01262F80
:100B5000408151816281738184810C947305CF93AC
:100B6000DF93EC0160E00E94A605BE01DF91CF910A
:100B70000C947105FF920F931F93CF93DF93E82F8F
:100B8000F0E0E752FC4FF490C82FC695C695C69585
:100B9000D0E0FE01E759FB4F0491877010E0082E6A
:100BA00002C0159507950A94E2F701701127C75AFC
:100BB000DB4FFE01C491D0E002C0D595C7958A9560
:100BC000E2F7C170DD270115110519F081EE0E94D1
:100BD0003A1C209719F086EE0E943A1C8F2D0E9435
:100BE000271DCD2B19F086EE0E94D11C012B41F060
:100BF00081EEDF91CF911F910F91FF900C94D11C4A
:100C0000DF91CF911F910F91FF900895EF92FF9286
:100C10000F931F93CF93DF938C01F62E8AE0E82E7B
:100C2000F8018491882309F454C0813009F04DC043
:100C3000E8012196FE018491813091F42196FE0114
:100C400084910E94271D8E010F5F1F4F8F2D8150B1
:100C500038F3EFE9FFE03197F1F700C00000F7CF7C
:100C6000823039F4E8012296FE0184910E943A1CF8
:100C7000EACF833039F4E8012296FE0184910E9484
:100C8000D11CE1CF8430F9F6E8012296FE012491CF
:100C900090E080E0FE0131962053330B2A3031057D
:100CA00048F0019780F2EFE9FFE03197F1F700C0DB
:100CB0000000F7CFE89EA001E99E500D1124C90164
:100CC000840F951F2491EF01E5CF0E94BA05E8013A
:100CD000BACFDF91CF911F910F91FF90EF900895C0
:100CE00060E00C9406060E94F525811102C00E9466
:100CF00099260C943B040E9482180C94FD080895D8
:100D00000E94C41F0E947F062FEF84E39CE02150C5
:100D100080409040E1F700C000000C94B6270F938C
:100D20001F93CF93DF93EC0161E00E94A6058C0135
:100D3000BE010E94E217BE01C8010E946E05882311
:100D4000B9F1BE01C8010E942818882389F1BE01AB
:100D5000C8010E94EC18882359F1BE01C8010E9405
:100D6000B315882329F1BE01C8010E940516882306
:100D7000F9F0BE01C8010E9428178823C9F0BE01FE
:100D8000C8010E94AC14882399F08A81882339F025
:100D900001158CE5180751F0003E1C4579F0CE0195
:100DA000DF91CF911F910F910C946A050E948006EC
:100DB00080E0DF91CF911F910F9108950E949926B5
:100DC000F7CF08950C94E10681E008950C94E406B1
:100DD000CF93C82F0E94E2068C2FCF910C94E60689
:100DE0000895972F70E027E0929F600D711D1124E8
:100DF000FB0196E4899FE00DF11D1124EE0FFF1F0A
:100E0000E35EFE4F859194910895FC01EE0FFF1F64
:100E1000E758FB4F859194910895CF93DF930E94FB
:100E2000F1060E942208EC01811520E5920708F0E6
:100E300042C0811530E4930708F0BDC0883E91059B
:100E400028F5803E910508F09DC0883A910588F408
:100E5000853A910508F08FC08130910509F492C060
:100E6000009709F48FC0049708F08CC0D0E0C0E070
:100E700089C08F3B910508F489C0805C9109C03C12
:100E8000D105A0F30E940507EC017CC081159042BA
:100E900050F4C11581E0D80708F074C0C03FD105F7
:100EA00028F3D0656FC0C11590E3D90708F079C069
:100EB000CE019F70E7CF811525E5920758F5811582
:100EC00034E5930708F0A6C0811542E5940750F475
:100ED000C11581E5D80708F471C0DC2FCC27C16F9C
:100EE000D06A50C0982F969596959E01237033270F
:100EF000C115D34508F07FC0C1E0D0E002C0CC0FDF
:100F0000DD1F2A95E2F720E2929FC0011124C82B31
:100F1000D92B6FC0C11589E5D807A8F4C11598E58C
:100F2000D90708F07CC0C11526E5D20708F09ECF8E
:100F30008C2F0E94B908C82FD0E0DC2FCC27CC27FB
:100F4000DF71D0621FC0C1153AE5D30708F46CC049
:100F5000CE0190568115904208F088CF8D2F8F7169
:100F60000E94B90890E0982F882788279F719C01DC
:100F70002C2BE901E6CFC55AD0E0C456DE4FC8811C
:100F8000D0E0D064CE01DF91CF910895C85AD0E06F
:100F9000CC0FDD1FC259DE4F0990D881C02DD4641B
:100FA000F1CFCE019927D3FF03C0EC01D86CEACF73
:100FB000EC01D06CE7CFDF70D06AE4CFCE01E4E083
:100FC00096958795EA95E1F783702C2F26952695BF
:100FD000237090E2299F90011124382B8C2F83706D
:100FE000C1E0D0E002C0CC0FDD1F8A95E2F7C22B32
:100FF000D32BDC68C7CFC1E0D0E002C0CC0FDD1F2F
:101000002A95E2F730E2939FC0011124C82BD92B17
:10101000DA68B8CFD82FCC27C46FD06AB3CFDC2F13
:10102000CC27C06FD06AAECF8C2F8F700E94B908CA
:1010300034E0D695C7953A95E1F7CF709C2FEC0137
:10104000D069A0CF82389105B1F1B0F48133910518
:1010500009F475C048F48932910509F469C08A32EF
:10106000910509F473C008958533910509F459C0B9
:101070008933910501F10895833E9105A9F138F472
:10108000803E9105F9F0823E910549F10895863E32
:101090009105A9F1873E9105C9F1843E910519F5A5
:1010A0002091880321FF1FC08091870384FD14C015
:1010B00087EE90E00895209187032370A1F080EEE1
:1010C00090E008952091870320FD47C03091880368
:1010D00030FF09C024FF44C090E080E004C02091AC
:1010E000870322FDF7CF08952091870322FD3BC09F
:1010F0003091880330FDE3CF24FFF5CFEDCF209171
:10110000870323FFF0CF24FDE7CFD2CF20918703C1
:1011100023FD2CC03091880331FFEECF84EE90E0A8
:1011200008952091870325FFDECF89E290E008959E
:101130002091870325FFD7CF85E390E00895209184
:10114000870326FFD0CF8AE290E00895209187039D
:1011500026FFC9CF81E390E0089589E390E00895E8
:1011600083EE90E0089582EE90E0089586EE90E0A0
:1011700008959091870392FF06C0282F2871283088
:10118000F9F4877F846093FF06C0282F28712831E7
:10119000F1F4877E84612091880320FF06C0382FF8
:1011A00038713830D9F4877F816021FF06C0282F3D
:1011B00028712831D1F4877E816194FD877E08955E
:1011C000282F24712430F9F68B7F8860DCCF282FFC
:1011D0002471243101F78B7E8861DDCF382F317186
:1011E000313019F78E7F8860E0CF282F21712131AF
:1011F00021F78E7E8861E1CF08950C946104E82F79
:10120000F0E0E85BFC4F80810895089580EA8A95BC
:10121000F1F70895F894E82FE295EF70F0E031A12E
:10122000282F2F7081E090E001C0880F2A95EAF7FF
:10123000982F9095932391A392A1892B82A37894C0
:1012400008950895CF93DF930E94570A8091340147
:101250008091340195E0811190E09093530385E0F3
:10126000891B8093520384E90E940A0987E90E943E
:101270000A0986EC0E940A0984E30E940A0985E3B0
:101280000E940A09CFE9D1E089910E940A0981E010
:10129000C63AD807C9F7EEE3F3E0A8E4B3E0119249
:1012A0001D9283E0E834F807D1F785E00E94020A36
:1012B0000E947306DF91CF910C94610A0E94390A53
:1012C0008823F9F08091520390E0885B9C4F0E9444
:1012D000910A811113C0809116028F5F80931602CC
:1012E000863050F0E0915203F0E0E85BFC4F108252
:1012F00011821282138214820C947B0610921602C1
:10130000FBCF8091530390E0885B9C4F0E94AE0A14
:101310000C942109CF92DF92EF92FF920F931F93CB
:10132000CF93DF93C6EAD1E00EE313E0D12CEE2495
:10133000E394F12C8991F894E82FE295EF70F0E0B6
:1013400021A18F70A70102C0440F551F8A95E2F7B3
:10135000CA01922F982B91A392A18095892382A3F1
:1013600078940E940609EFE9F1E030E020E0C12C1A
:101370004191A42FA295AF70B0E090968C9190E02F
:101380004F7002C0959587954A95E2F780FD36C06B
:101390008E2D022E01C0880F0A94EAF7C82A2F5F0B
:1013A0003F4F2730310521F7FE01319780810E94A0
:1013B0000A09F8018081C81619F1C08281E0D82A93
:1013C0000F5F1F4FF1E0CB3ADF0709F0B3CF609119
:1013D000530370E0685B7C4F2D2D45E08EE393E076
:1013E0000E94030A0E945E098D2DDF91CF911F910B
:1013F0000F91FF90EF90DF90CF90089580E0CECFD7
:1014000080E0DDCF0895FF920F931F93CF93DF937A
:10141000F82E092F162FD72FC42F222349F081E051
:10142000809319020E9477279093180280931702E5
:10143000809119028823A1F08091170290911802DF
:101440000E948327069760F0EF2DF02FA12FBD2F6C
:10145000CE0FDF2FD11DEC17FD0741F410921902BA
:10146000DF91CF911F910F91FF90089581918D93FE
:10147000F2CF80911A02811111C08091D800806151
:101480008093D8008AE18A95F1F700C09091D90045
:10149000892F817090FF82E080931A0281E0909101
:1014A0001A02913009F080E008950C94390A0E94E4
:1014B000550A809334010E94390A81110C94680AFC
:1014C00008950E94390A811102C00C946E0A089591
:1014D00062E070E085E391E00C94951962E070E0C1
:1014E00085E391E00C949E190E947312882361F0A9
:1014F00082E292E00E94791281E090E00E94771AE5
:10150000892B11F40C947612089580912102883071
:1015100039F460E082E292E00E9489131092210285
:101520000895CF93DF93D82FC92F0E94740A90E0BB
:1015300080E00E94771A009779F4ED2FFC2FDC01F0
:10154000A45EBD4F2C912193019685309105B9F78A
:1015500081E0DF91CF91089580E0FBCFCF93DF93BF
:10156000D82FC92F0E94850AED2FFC2F90E080E034
:101570002191DC01A45EBD4F2C930196853091052D
:10158000B9F7DF91CF910895833081F128F481304C
:1015900059F08230D1F00895853009F449C0B8F18E
:1015A000863009F456C0089580916201482F460F95
:1015B0005527551F4F3F510524F4680F6093620172
:1015C00008958FEF80936201089580916101482F03
:1015D000460F5527551F4F3F510524F4680F609360
:1015E000610108958FEF80936101089580916001FA
:1015F000482F460F5527551F4F3F510524F4680FBC
:101600006093600108958FEF809360010895809149
:101610005F01482F460F5527551F4F3F510524F4B2
:10162000680F60935F0108958FEF80935F010895C5
:1016300080915C01482F460F5527551F4F3F51059C
:1016400024F4680F60935C0108958FEF80935C0130
:10165000089580915B01482F460F5527551F4F3F36
:10166000510524F4680F60935B0108958FEF809318
:101670005B010895833011F128F4813049F0823004
:1016800091F00895853081F120F18630C1F10895FF
:1016900080916201681720F4861B8093620108958F
:1016A00010926201089580916101681720F4861BF1
:1016B0008093610108951092610108958091600105
:1016C000681720F4861B80936001089510926001D2
:1016D000089580915F01681720F4861B80935F0155
:1016E000089510925F01089580915C01681720F4BD
:1016F000861B80935C01089510925C01089580918F
:101700005B01681720F4861B80935B01089510929B
:101710005B0108950F931F9341E050E060E070E09B
:101720008A019B0104C0000F111F221F331F8A95DD
:10173000D2F7C901B8010E945C231F910F910C944C
:10174000C41F8B3109F461C040F58B3071F078F41F
:10175000863009F443C020F4853059F180E00895C3
:10176000873009F444C08830C9F781E0089580319A
:1017700009F459C068F48E3089F790912503892FB8
:101780008B7F92FF84608093250382FD48C0EDCF5C
:10179000863159F3893149F3E1CF8A32E1F060F4BF
:1017A0008732A9F020F48E31C8F28D5111C08932F0
:1017B000A9F60E948006D9CF833438F48A33F0F535
:1017C000853329F0883389F2C9CF833439F680E034
:1017D0000E948A0BCACF0E949926C7CF8091250309
:1017E000807F8093250381E080932B020895909160
:1017F0002503892F8E7F90FF81608093250380FDD4
:10180000B4CF817F80932503B0CF90912503892F9A
:101810008D7F91FF82608093250381FFA6CF809109
:1018200025038160EFCF90912503892F877F93FF58
:1018300088608093250383FDF2CF97CF8953C8CF6B
:1018400080E008950C94200C8E518A3030F4E82FFB
:10185000F0E0E055FE4F8081089580E00895CF9339
:10186000C82F80912B028130B9F0882331F082306B
:10187000A1F110922B0280E00DC00E94432582321C
:10188000D1F78C2F0E94200C81111BC08C2F0E943D
:10189000A10B8170CF9108950E944325823289F374
:1018A0008C2F0E94220C81110AC0C43199F060F47F
:1018B000CB3029F0C03169F782E080932B0281E0C0
:1018C000E8CF81E090E0E5CFC93221F0C833B9F329
:1018D00080E0DFCF10922B02FBCFC93219F188F4E0
:1018E000C43101F120F4C73081F181E0D3CF82EE21
:1018F0008C0F8630D0F78C2F0E94240C80932A0204
:10190000F4CFCE3401F140F46AE0CB3471F780912A
:101910002A020E94C40AE9CFC13579F061E0C235DC
:10192000B1F3E3CF80912A02882319F010922A02A2
:10193000DCCF81E080932B02ADCF61E080912A0261
:101940000E943A0BD2CF6AE0F9CF8EE18093620118
:1019500082E3809361018AE08093600184E1809357
:101960005F0188E080935C0188E280935B01BDCFDA
:10197000EF92FF920F931F93CF93DF93EB01E82F2A
:10198000D11110C0442321F0F0E0ED56FA4FE4915C
:101990006E2F7E2F8E2FDF91CF911F910F91FF9091
:1019A000EF9008950D2F10E0282F30E0442329F008
:1019B0002D563A4FF901249130E0F6E0CF9FC00157
:1019C0001124EFEFF0E0BF010E944C31AB018C2FEE
:1019D00090E0880F991FA5E5A49FB001A59F700D09
:1019E0001124861B970B982F990F980FBF01601B2E
:1019F000710B629FD001639FB00D729FB00D1124D7
:101A00008B2F9D9FB0011124672F7727EF01C61BF5
:101A1000D70BBE01629FE001639FD00D729FD00D76
:101A200011247F01E91AF108E09EB001E19E700DDA
:101A3000F09E700D1124672F7727E61BF70BE29FAE
:101A40008001E39F100DF29F100D1124E12F722FE2
:101A50004230510599F048F44115510569F0413083
:101A6000510581F0EB2F8D2F07C04430510569F0EF
:101A700080F046305105B1F76E2F8DCFE22F7B2FCE
:101A8000812FFACFE22F7D2FF7CFEB2F822F712FEF
:101A9000F3CF7B2F822FED2FEFCF41E00C94B80CCA
:101AA00008950C944D0DCF93DF93762FE901682FA5
:101AB000842F0E94510D798368838A83DF91CF91AF
:101AC000089580915403982F9E7F29F4817082603D
:101AD0008093540308958635E8F381708465F8CFC8
:101AE00088E090E00C943E32CF92DF92EF92FF922A
:101AF0006B017C010E94610DB701A60188E090E0B6
:101B0000FF90EF90DF90CF900C945C32E4E5F3E02F
:101B100083E0808311828FEF828383831482AFE717
:101B2000B2E012968C911297836012968C9360812A
:101B30007181828193810C94740D8091540380FF94
:101B400002C08695089580E00895909158039330DF
:101B500018F49F5F90935803882351F060915403C9
:101B60007091550380915603909157030C94740D16
:101B7000089581E00C94A50D90915803992319F0D4
:101B8000915090935803882351F0609154037091C1
:101B9000550380915603909157030C94740D08954A
:101BA00081E00C94BC0D70E00C941B156091490110
:101BB0008091540380FF0AC08091480123E0829FF6
:101BC000C0011124875A9C4F0C94D30D80914A0177
:101BD00090914B0123E0829FF0011124E75AFC4FC2
:101BE000891750F71182108212828F5F3396F8CFD7
:101BF0009091540390FF14C090914A0120914B01A1
:101C000033E0939FF0011124E75AFC4F921710F034
:101C10000C94D60D8183608342839F5F3396F6CF09
:101C20000895CF93DF9300D00F92CDB7DEB7909198
:101C3000540390FF0AC09E012F5F3F4F0E94530D37
:101C40004B8169818A810E94F80D0F900F900F904F
:101C5000DF91CF910895CF93DF93EC01EC81F0E019
:101C6000E257FB4F4491E4E5F3E0628181810E94F9
:101C7000110E8C818F5F8C83DF91CF910895CF936C
:101C8000DF93EC01E4E5F3E0438162818C810E9403
:101C9000110E8C818F5F8C83DF91CF9108950F930C
:101CA0001F93CF93DF9300D00F92CDB7DEB78C0197
:101CB00080912C0281110AC09E012F5F3F4F4FEF90
:101CC0006FEF0E94530D8A8180932C02F80164818A
:101CD000613069F080912C0240E0662361F040E0C1
:101CE000623011F440912C0280E060E004C0609109
:101CF0002C0240E080E00E94F80DF801848190E021
:101D0000019663E070E00E94603184830F900F9031
:101D10000F90DF91CF911F910F910895AF92BF92D5
:101D2000CF92DF92EF92FF920F931F93CF93DF93A7
:101D300000D00F92CDB7DEB7182FF62E042FE22E6B
:101D40009091540390FF3AC0E92FE695AE2FB0E092
:101D5000A654BE4F8C9180937F029E7F9230E1F516
:101D60009E012F5F3F4F812F0E94530D4B81698150
:101D70008A810E94F80D80915503811308C08091DB
:101D800056038F1104C080915703801729F080916A
:101D9000810282608093810210935503F092560372
:101DA00000935703EE2051F0609154037091550356
:101DB00080915603909157030E94740D0F900F90DD
:101DC0000F90DF91CF911F910F91FF90EF90DF90D7
:101DD000CF90BF90AF900895823019F400915703CF
:101DE000CACF863019F410915503C5CF8930D9F385
:101DF000893109F6E9518E2F8170D82EE695F0E0F1
:101E0000E257FA4FA590B490C12CBB2460914C01CD
:101E1000C61618F00E94D60DAECF2C2D30E0A29E33
:101E2000C001A39E900DB29E900D112470E00E94FF
:101E30004C31812FD11013C0860F40914A01420FBF
:101E4000532F511D9A01220F331F240F351F275A7C
:101E50003C4F402F6F2D0E94530DC394D7CF861B4C
:101E6000ECCFE4E5F3E09181282F4381628188E0A3
:101E7000890F0C948E0E81E00C94310FE4E5F3E0B1
:101E80009181282F4381628188EF890F0C948E0EF7
:101E900081E00C943E0FE4E5F3E0628128E0620FFC
:101EA00008F46FEF282F438181810C948E0E81E01E
:101EB0000C944B0FE4E5F3E0628128E0621B08F428
:101EC00060E0282F438181810C948E0E81E00C9478
:101ED0005A0FE4E5F3E0438128E0420F08F44FEFA6
:101EE000282F628181810C948E0E81E00C94690F01
:101EF000E4E5F3E0438128E0421B08F440E0282FAA
:101F0000628181810C948E0E81E00C94780F20E028
:101F10000C948E0EEF92FF921F93CF93DF93EC0100
:101F200010E0EE24EA94F12C60914C01161770F049
:101F30000E94D60D9A818C8190FF27C08F5F8C8381
:101F4000DF91CF911F91FF90EF90089520914A016A
:101F5000422F410F5527551FCA019A01220F331FE7
:101F6000280F391F275A3C4F70E0C7010E9460318B
:101F7000962F8C814091570360915603199F800DD5
:101F800011240E94530D1F5FCFCF8150D8CF8F9265
:101F90009F92AF92BF92CF92DF92EF92FF920F93F8
:101FA0001F93CF93DF93EC018A81BB24BA9480FD09
:101FB00002C0BB24B3948C8181110AC081E0B812A5
:101FC0002AC080914C01815080932E0281E08C8345
:101FD000A12C4EE0942E80914C01A816F8F00E949E
:101FE000D60D80912E0291E0B91261C081115AC0C4
:101FF00080914C01815080932E021C82DF91CF9101
:102000001F910F91FF90EF90DF90CF90BF90AF9016
:102010009F908F90089510922E02D8CF00914A0180
:10202000CA2CD12C0C0D1D2D111DC801880F991F14
:10203000080F191F075A1C4FF801118210821282D3
:1020400034E0E32EF12C812C80912E02880D8F300C
:102050001CF1692D0E943E31892F082E000C990B2E
:10206000C816D90691F4809157038E9DA0018F9DCB
:10207000500D1124559547955595479598016091B8
:102080005603809155030E94530D8B0CF1E0EF1A1B
:10209000F108D1F6A3949FCF87FFDFCF90914C0139
:1020A000890FDBCF815080932E02BC82A7CF90E0B6
:1020B000019660914C0170E00E94603180932E0285
:1020C0008C839CCFEF92FF920F931F93CF93DF935C
:1020D000EC018C81811109C081E08C8310922D026A
:1020E00092E0909347018093460180914A0190913C
:1020F0004B0123E0829FF0011124E75AFC4F89171E
:1021000068F110E003E060914C01161768F10E943D
:10211000D60D8091460120912D02280F20932D028B
:1021200090914701980F90934701191654F4022E8D
:10213000000C330B40914C014150550B24173507CF
:1021400034F0819580934601813009F41C82DF913F
:10215000CF911F910F91FF90EF90089511821082FF
:1021600012828F5F3396CBCFE12EF12C70E0C70146
:102170000E94603120914A01820F482F50E0209147
:102180002D02022E000C330BE216F306BCF0209158
:102190004701022E000C330B2E153F057CF0809F6B
:1021A00090011124275A3C4F4091570360915603E8
:1021B000809155030E94530D1F5FA5CFFA01EE0FCA
:1021C000FF1FE40FF51FE75AFC4F118210821282A5
:1021D000F3CF8F929F92AF92BF92CF92DF92EF9206
:1021E000FF920F931F93CF93DF93EC014C81042F49
:1021F00010E09801D8010E94A4319B01AC010E941B
:10220000BA314B015C01E0E2F0E0E01BF10BA5E527
:10221000B0E0AC019B010E94BA316B017C019F01CF
:10222000DF010E949C319B01AC010E94C5319B01E2
:10223000AC01280D391D4A1D5B1DC701B6010E9466
:102240007431F22E822F90E039E23F1560F143E0C5
:10225000249F9001112435952795122F109500E0A9
:1022600085E5E82EEF1880914C01081758F10E947F
:10227000D60D9C8181E0992319F0903219F48FEFEB
:102280008093450180914501890F8C83DF91CF9127
:102290001F910F91FF90EF90DF90CF90BF90AF9084
:1022A0009F908F90089525E530E0B901681B790B68
:1022B0009B01220F331F260F371F37FFCCCF2F5F15
:1022C0003F4FC9CF8E2D01FD8F2D20914A01622FE6
:1022D000600F7727771F9B01220F331F260F371FB1
:1022E000275A3C4F412F609156030E94530D0F5FB8
:1022F000BACF0F931F93CF93DF93EC0110E000E070
:1023000090914C019017110609F06CF40E94D60DC3
:102310008C8190E00196817099278C83DF91CF9119
:102320001F910F91089520914A01A801420F511D5C
:102330009A01220F331F240F351F275A3C4F4C811F
:10234000609156038091550396959017110651F0B0
:102350004CF0442349F0409157030E94530D0F5F06
:102360001F4FCECF4423B9F340E0F7CF8F929F9217
:10237000AF92BF92CF92DF92EF92FF920F931F9393
:10238000CF93DF93FC01B280948081E0848300E0EE
:1023900015E05BE4A52E88248394EE24EA94F12CC6
:1023A0007BE4C72ED12C80914C01081770F0DF918F
:1023B000CF911F910F91FF90EF90DF90CF90BF9042
:1023C000AF909F908F900C94D60DC02FD0E01C9FA3
:1023D000F0011D9FF00D1124EE5CFD4F91101CC00B
:1023E0001382128220914A01CE01820F911D9C011D
:1023F000220F331F280F391F275A3C4F1C9FF00113
:102400001D9FF00D1124EE5CFD4F428161818081A2
:102410000E94530D0F5FC7CF2381222379F12150F2
:10242000238334818A2D821B311101C0822F1C9F8E
:10243000F0011D9FF00D1124EE5CFD4F90915703AC
:10244000899FC0011124B6010E944C316283211181
:1024500004C0332311F01482A38222E02B1510F262
:102460001C9FF0011D9FF00D1124EE5CFD4F80912B
:1024700055038083809156038183B4CF0E94193223
:10248000823091400CF0AECF82E08B1530F50E9487
:102490001932B7010E9460311C9FF0011D9FF00DA1
:1024A0001124EE5CFD4F808322E02B15C8F40E94BE
:1024B0001932209156032695622F70E00E946031F8
:1024C000280F1C9FF0011D9FF00D1124EE5CFD4FA5
:1024D00021831282A382848285CF80915503DCCF31
:1024E00020915603EECF80918102089510928102CF
:1024F000089525E0E4E5F3E0DC0101900D922A95D2
:10250000E1F720917F023091800240918102FC012D
:102510002583368347830895EFE7F2E011828281B5
:10252000846082830895E4E5F3E080818E7F808378
:102530000E948C12EFE7F2E08281816082832FEFAC
:1025400080E792E0215080409040E1F700C0000019
:102550000C94D60DE4E5F3E080818E7F808360816A
:102560007181828193810E94740D0E948C12EFE729
:10257000F2E08281816082832FEF80E792E0215038
:1025800080409040E1F700C000000C94D60D6091AF
:102590005403669570E04BE050E08DE491E00E94BA
:1025A0002932892B19F481E0809380020E947727D9
:1025B0009093790280937802809181028460809365
:1025C000810208959091540390FF3AC09170811157
:1025D0002DC092609093540380918102816080931A
:1025E0008102662351F060915403709155038091EC
:1025F0005603909157030E94740D609154036695A1
:1026000070E04BE050E08DE491E00E942932892B8C
:10261000A1F00E948C1281E080937B0240915703CD
:1026200060915603809155030C94870F8B3210F004
:102630009465D0CF880F982BCDCF0E94C712EBCFD7
:102640000895682F90915403969581E0890F8B32FD
:1026500008F081E00C94E21281E00C942113682FC1
:102660009091540396958FEF890F09F48AE20C94A8
:10267000E21281E00C942F1361E00C94E212E4E585
:10268000F3E080818160808386950C943C13809177
:10269000540380FD0C94AA120C943F1360E00C9438
:1026A000E21280917E02811133C00E94F5258111D2
:1026B00004C00E9499260E94860D0E94700D6093AE
:1026C000540370935503809356039093570380915E
:1026D00081028360809381026E7F61F40E94860D87
:1026E0000E94700D609354037093550380935603BA
:1026F000909357030E94610D0E948C1280915403A5
:1027000080FF03C086950E944E1381E080937E0275
:1027100008951F93CF93DF93EC01162F8F8180FFD5
:102720000CC0888180FF24C0809154038160809315
:102730005403888186950E94E2128F8181FF06C032
:10274000212F4B816A8189810E948E0E8F8182FFA9
:1027500005C08E81882379F00E94C7128F8183FF84
:1027600003C081E080937B02DF91CF911F91089598
:102770000E949312E2CF0E948C12F0CFEF92FF9250
:102780000F931F93CF93DF9380918002882309F4E6
:1027900068C080917F02E0915403E695E81BE093C6
:1027A0007A02823009F064C0F0E0E657FB4FE49112
:1027B000CE2FD0E00BE21EE080917B02882389F0CF
:1027C00010927B020E9477279E0120953095820F00
:1027D000931F909379028093780210927D02109259
:1027E0007C0280917802909179020E9483278C1755
:1027F0009D07B8F1809131028823B1F01092310227
:1028000080912F02909130020E9483278033954758
:1028100058F00E9477279093300280932F02809186
:102820008102886080938102E0907C02F0907D02BA
:10283000E0917802F0917902CE0FDF1FD0937902F8
:10284000C093780288E792E0F801099580917C02B4
:1028500090917D02892B29F4EF2819F081E0809373
:102860003102DF91CF911F910F91FF90EF9008956A
:10287000863049F4F0E0E957FB4FE491CE2FD0E0E9
:102880000FE31EE099CF893051F4E695F0E0EC5764
:10289000FB4FE491CE2FD0E00AE81FE08DCF8F30C0
:1028A00051F4E695F0E0EF57FB4FE491CE2FD0E0E6
:1028B00007EC1FE081CF853149F4F0E0E258FB4F8F
:1028C000E491CE2FD0E002E610E176CFC8E2D0E06E
:1028D00009EE10E1883109F46FCF833239F4ECE767
:1028E000F4E0C591D4910FE41EE066CFC4EFD1E0CF
:1028F00009E711E1843209F45FCFC0EDD7E000E5CC
:102900001DE0853209F058CF8E2F63E00E943231EE
:10291000E92FF0E0E758FB4FE491CE2FD0E006EB33
:1029200011E14ACFFA01811101C0FB010994CF9353
:10293000DF93C82FD62F0E949D0D8C1740F00E9468
:102940009D0D8D1720F4DF91CF910C942C138C2FBB
:10295000DF91CF910C943C131F93CF93DF93EC0145
:10296000FB011281111110C00E9443258272FE01E9
:10297000E45CFC45E431F10508F05BC0E156FD4C38
:102980000C9496310E944713812FDF91CF911F91B4
:10299000089549E353E16CE273E10E949214F4CF8D
:1029A0004CE253E169E373E1F8CF48E45FE06BE3A5
:1029B0007FE0F3CF4BE35FE068E47FE0EECF46E6F5
:1029C0005FE067E57FE0E9CF47E55FE066E67FE04F
:1029D000E4CF44E85FE065E77FE0DFCF45E75FE015
:1029E00064E87FE0DACF40ED5DE069EB7DE0D5CFD4
:1029F00049EB5DE060ED7DE0D0CF81E00E943C13CB
:102A0000C3CF65E082E00E949714BECF68E086E005
:102A1000FACF6EE089E0F7CF64E18FE0F4CF67E1B1
:102A200085E1F1CF88E1EACF62E289E1ECCF83E290
:102A3000E5CF11E0A9CF539A4BB1477F5BB1586006
:102A4000EFB7F8949B01220F331F260F371F280F73
:102A5000391F2817390741F4EFBF8FE594E001973C
:102A6000F1F700C000000895DC016D91CD0178E020
:102A70005BB9000000C067FF4BB9660F000000C0E3
:102A800000C000C04BB900C07A9591F7E2CF0F9318
:102A90001F93CF93DF93C42FD22FFC018281882311
:102AA000C9F0409384020E94772790938302809319
:102AB000820280E28C0F883008F050C0C77081E03D
:102AC00001C0880FCA95EAF7DF91CF911F910F914E
:102AD0000C943A1D10918402141335C08091820227
:102AE000909183020E9483278A3F910560F5C0E29E
:102AF000CD0F1D17B9F080E2810F883040F41770B8
:102B000081E001C0880F1A95EAF70E94411DC83084
:102B100048F481E09D2F977001C0880F9A95EAF7DD
:102B20000E943A1D802F0E94271DC830B8F4D7702C
:102B300081E001C0880FDA95EAF7DF91CF911F910C
:102B40000F910C94411D80E28C0F883038F4C770CF
:102B500081E001C0880FCA95EAF7EFCFDF91CF91EE
:102B60001F910F9108950F939C01CB01253F4CE5D8
:102B7000340759F1A8F42A3DFCE53F0701F12B3D4C
:102B80004CE53407D1F1293D3C4591F406E221EEB4
:102B900041EE69ED7CE50E94471580E00F910895B4
:102BA000273FFCE53F07E9F0B0F0283F3C45F9F04E
:102BB000FC018281882339F110928402EFCF07E271
:102BC00025EE45EE6AED7CE5E6CF06E221EE40EE2D
:102BD00065EF7CE5E0CF07E225EE44EE66EF7CE5AD
:102BE000DACF06E221EE42EE67EF7CE5D4CF07E2D2
:102BF00025EE46EE68EF7CE5CECF08E221E045EE1B
:102C00006BED7CE5C8CF81E0C9CFCF93DF93EC01BA
:102C1000FB018281882309F419C1C230FCE5DF077A
:102C2000C0F1C6319CE5D90730F09E012C5F3C45D0
:102C30002930310570F50E9408269093880380930F
:102C40008703C031ECE5DE0709F4CFC008F05BC0B4
:102C5000C8308CE5D80709F4B6C088F5C430ECE577
:102C6000DE0709F4A8C0C0F4C2308CE5D80709F427
:102C70009CC0809187038260C330DC4509F498C012
:102C800080918703909188030E9416260E94C41F9A
:102C900080E0DF91CF910895809187038061C630F5
:102CA000ECE5DE0709F484C0809187038860C730B3
:102CB000DC4508F47DC080918703806279C0CC3008
:102CC0008CE5D80709F489C070F4809187038C6083
:102CD000CA30ECE5DE0709F46BC008F478C08091D7
:102CE00087038E7F65C0CE308CE5D80709F479C0A4
:102CF000809187038B7FCF30DC4508F459C08091E9
:102D000087038F7E55C0CD3FECE5DE0709F457C041
:102D100030F5C3318CE5D80709F46FC078F4C131C0
:102D2000ECE5DE0709F465C0C231DC4509F0A8CF47
:102D30000E94C41F809187038F773AC0C5318CE50C
:102D4000D80709F462C008F476C0809188038160D6
:102D5000CC3FDC4509F094CF8093880391CFC130FC
:102D6000FDE5DF0709F44DC088F4809188038D7F6D
:102D7000CF3F9CE5D90781F3809188038E7FC115F1
:102D8000DD4550F3809188038360E6CFC330FDE5D5
:102D9000DF0709F459C008F444C080E0C430DD45C1
:102DA00009F06ECF0E949B266BCF809187038160D4
:102DB0008093870365CF809187038460F9CF8091EA
:102DC00088038260C9CF809187038064F1CF0E941D
:102DD000C41F809187038068EBCF809187038D7F2C
:102DE000E7CF80918703877FE3CF809187038F7D33
:102DF000DFCF809187038F7BDBCF80918703837F39
:102E0000D7CF809188038C7FA7CF8091870382FBE7
:102E1000992790F921E0922790FB82F990FB83F9A2
:102E2000C7CF80918803982F909591708E7F892BC2
:102E300090FB81F991CF0E94C41F90918703892F45
:102E400097FB87F98058B4CF81E0ACCF81E021CFE8
:102E5000CF93DF93EB0186319C4511F50E9443250A
:102E60009A81992399F08A7A91E009F490E09093FD
:102E70008502811109C089E20E941E250E949225C7
:102E800080E0DF91CF91089585E3F6CF80918502B0
:102E9000811104C089E20E942525F0CF85E3FBCF94
:102EA00081E0EFCFCF93DF93EC0181E0898B8F81BD
:102EB0000E94462588850E9459250E949225EA8114
:102EC000FB81309739F06C897D89CE010696DF91C0
:102ED000CF910994DF91CF910895CF93DF93EC01C7
:102EE0008881823039F4FB01828193810E94400500
:102EF00081E08B87DF91CF910895FC018081813043
:102F000029F4FB01808191810C944005823021F4E9
:102F1000FB0182819381F8CF0895FC01808181308B
:102F200029F4FB01808191810C945505823021F4B4
:102F3000FB0182819381F8CF0895EF92FF920F9366
:102F40001F93CF93DF93EC018A85811134C0EB800E
:102F5000FC8087E5F81A26E12E9DC0012F9D900D7B
:102F60001124DC01AC5FBE4F1496ED91FC911597D6
:102F7000309731F054966D917C91865F9E4F099504
:102F800086E18E9D80018F9D100D11240C5F1E4FD8
:102F9000F80187810E944C25F80180850E945F25F9
:102FA0000E949225188219861B861E821D8210920D
:102FB000870210928602DF91CF911F910F91FF90AF
:102FC000EF900895DF92EF92FF920F931F93CF93AC
:102FD000DF937C01FB018281882391F0809158016D
:102FE0008F3F71F0C4E0D1E010E000E0DD24D39425
:102FF00080915801082E000C990B8017910744F41A
:10300000DF91CF911F910F91FF90EF90DF90089586
:103010008E818823C9F089859A858E159F0539F49C
:1030200080918602909187028E159F0569F0DF8658
:10303000FC86EB868989811103C0CE010E9452175C
:10304000CE0106960E949D170F5F1F4F6696D0CF48
:10305000EF92FF920F931F93CF93DF937C019755CD
:103060008F3F910509F0D8F520915801022E000CF0
:10307000330B2817390714F480935801FB01228180
:1030800036E1389F8001399F100D1124E801CC5F93
:10309000DE4F288B92818E81992349F1FA86E98649
:1030A0008F5F8E830E9477279E878D870E94792568
:1030B0008F830E94432588870E9456259885892BF7
:1030C0008887E881F981309731F06C897D89C80162
:1030D000865F9E4F0995F0928702E092860281E01A
:1030E000DF91CF911F910F91FF90EF90089588236A
:1030F000B1F38989882399F3C801865F9E4F0E94A6
:103100009D17EDCFEF92FF920F931F93CF93DF9315
:103110008091580110E006E18F3FC1F5DF91CF911A
:103120001F910F91FF90EF900895029FF001039F70
:10313000F00D1124EC5FFE4FE288F388E114F104F6
:1031400019F48AEFE82EF12C029FE001039FD00DC5
:103150001124CC5FDE4F8E818823B9F08D859E854A
:103160000E948327E816F90680F4109F700111244D
:103170008989811105C0C7018C5F9E4F0E9452173B
:10318000C701865F9E4F0E949D171F5F212F30E071
:1031900080915801082E000C990B821793072CF68A
:1031A000BDCF0895089580919502811114C00E94A9
:1031B000D11881E0809395020E9477279093940222
:1031C0008093930210928802E9E8F2E08AE0DF013E
:1031D0001D928A95E9F708951F93CF93DF93EC0131
:1031E000FB011281111106C011E0812FDF91CF91F7
:1031F0001F91089580919502882381F18091930217
:10320000909194020E948327883E934068F7CE01F4
:103210009056811520E2920720F0905E8115904132
:1032200008F4DD2780918802853098F4E82FF0E0DB
:10323000EE0FFF1FE757FD4FD183C0838F5F809351
:1032400088020E947727909394028093930210E063
:10325000CCCF109295020E94D218F3CFC731DC4533
:1032600019F60E94D318C1CF8EE1489B02C081504D
:10327000E1F7489BFECF0895589880E28A95F1F7D0
:10328000589A0895FC013BE03A95F1F720E090E070
:1032900080E031E040E14A95F1F7880F489B02C099
:1032A0008160232742E04A95F1F7000040E14A950A
:1032B000F1F79F5F6913EECF90E19A95F1F799B11D
:1032C00032E03A95F1F7000040E14A95F1F791704C
:1032D00092272081920F90830895EF92FF920F938F
:1032E0001F93CF93DF930F92CDB7DEB719828C0176
:1032F0007C01E60EF11C0E151F0561F481E0998139
:10330000911180E00F90DF91CF911F910F91FF906D
:10331000EF9008950E94341968E0CE0101960E9452
:103320004219F80181938F01E6CF90939802809320
:10333000970260939602509A589A08959093980233
:1033400080939702609396025098589AE89AE9E61B
:10335000F0E080818C7F808308956150770B91E04D
:1033600001C0990F6A95EAF720E031E0911108C099
:10337000222391F0589A80E28A95F1F7589808959F
:10338000492F482339F0589A232740E24A95F1F70C
:103390009695ECCF5898F9CF5898EDCFFF920F93B0
:1033A0001F93CF93DF93EC018C01060F111DC01703
:1033B000D10731F4DF91CF911F910F91FF900895C4
:1033C000F9900E943C1968E08F2D0E94AD19EFCF53
:1033D0001F920F920FB60F9211240F931F932F93EA
:1033E0003F934F935F936F937F938F939F93AF938D
:1033F000BF93EF93FF93CF93DF930F92CDB7DEB7D9
:1034000019820E94341967E0CE0101960E94421988
:10341000082F069506950695982F92959570202F62
:103420002570920F292F2370969596958770920F8D
:10343000891344C08981811141C08091960280170F
:10344000E8F120E12A95F1F7589A509A82E08A959E
:10345000F1F700C0A8E00A9FC00111240091970273
:1034600010919802080F191F5898F801658166237A
:1034700021F0868197810E94CE190E943C19F0E1CB
:10348000FA95F1F758985098589A20E12A95F1F753
:10349000D80112966C911297662331F113968D9193
:1034A0009C910E946D19D801ED91FC91882311F037
:1034B00088E001C082E080830E9434190F90DF9180
:1034C000CF91FF91EF91BF91AF919F918F917F919C
:1034D0006F915F914F913F912F911F910F910F909D
:1034E0000FBE0F901F901895ED91FC91E1CF0F93B7
:1034F0001F93CF93DF9320919602281719060CF49F
:1035000071C08C0193E0000F111F9A95E1F7C091F3
:103510009702D0919802C00FD11FF894509A5898F2
:1035200025E02A95F1F70000982F96959570857003
:10353000980F892F837096959695980F092B0E9466
:103540003C1900C067E0802F0E94AD1980E18A9588
:10355000F1F75098589A489B17C087E090E0489937
:1035600015C06D81662321F18E819F810E946D19A6
:1035700081111EC0509A589AE881F98182E08083B7
:10358000789482E090E00DC000C0E5CF019771F41F
:10359000509A589AE881F98181E08083789481E09B
:1035A00090E0DF91CF911F910F91089500C0D7CF88
:1035B0000E94341920E22A95F1F75898509A80E138
:1035C0008A95F1F76A81662321F08B819C810E94A4
:1035D000CE190E943C19E881F9811082789490E01C
:1035E00080E0DFCF84E090E0DCCF90939E02809378
:1035F0009D020895E0919D02F0919E02309721F086
:103600000190F081E02D099480E00895E0919D0201
:10361000F0919E02309721F00280F381E02D099411
:103620000895E0919D02F0919E02309739F022E0DA
:10363000DC012C930480F581E02D099408952091FC
:103640009B0230919C022817390771F090939C02DD
:1036500080939B02E0919D02F0919E02309721F0B1
:103660000680F781E02D0994089520919902309108
:103670009A022817390771F090939A028093990261
:10368000E0919D02F0919E02309721F00084F18537
:10369000E02D0994089585B7806885BF85B7806857
:1036A00085BF0895089508950C94521B08950C94B5
:1036B000561B0E944B1B0E94531B0C94541B0C94D2
:1036C000390A089508950E946E270E9422090E94D7
:1036D000C7270E9451130C94571BBF92CF92DF92C1
:1036E000EF92FF920F931F93CF93DF93CDB7DEB787
:1036F0002A970FB6F894DEBF0FBECDBF0E94611BA4
:103700000E94621B0E948A090E945F1B882309F4A1
:1037100061C080EAC82E82E0D82E10E000E0B02E12
:10372000802F0E94FF08E82EF601F1906F01F81635
:1037300009F44AC08091250381FD0E9405099F2D4F
:103740009E2580E0FF24F394292F2F21C1F18E8341
:10375000BF82EF2081E009F480E088870E9477270C
:103760008160782F9A8789874E815F8168858A85F5
:103770000E940B1CF801E056FD4F8081F826F08274
:103780000E94BE130E9472290E94FA1A90919F0211
:10379000891789F10E94FA1A80939F022A960FB620
:1037A000F894DEBF0FBECDBFDF91CF911F910F9177
:1037B000FF90EF90DF90CF90BF900C94E8068F5F62
:1037C000FF0C873009F0C0CF0F5F1F4F0A30110583
:1037D00009F0A5CF8FEF89838A831B820E94772708
:1037E0008160782F9D838C8349815A816B818D8183
:1037F0000E940B1CC5CF2A960FB6F894DEBF0FBEF1
:10380000CDBFDF91CF911F910F91FF90EF90DF908F
:10381000CF90BF900895CF93DF93CDB7DEB72B97AE
:103820000FB6F894DEBF0FBECDBF4F8358876987B0
:103830007A878B871E821D8285E0FE013796DE0126
:10384000119601900D928A95E1F749815A816B8119
:103850007C818D819E812B960FB6F894DEBF0FBEC2
:10386000CDBFDF91CF910C943A22FC0180819181F0
:103870000C94F024CF93C82F882309F490C0823889
:10388000C1F40E94FA1A81FD8AC089E30E941E25B4
:103890000E9492252FEF81EE94E0215080409040CD
:1038A000E1F700C0000089E30E942525CF910C9428
:1038B00092258338A1F40E94FA1A80FD70C083E536
:1038C0000E941E250E9492252FEF81EE94E0215048
:1038D00080409040E1F700C0000083E5E5CF8438E8
:1038E000A1F40E94FA1A82FD5AC087E40E941E25A4
:1038F0000E9492252FEF81EE94E02150804090406D
:10390000E1F700C0000087E4CFCF8CEF8C0F813A45
:10391000B8F48C2F0E942F0C811141C06C2F809124
:10392000590190915A010E94B226882329F08C2FC8
:103930000E9425250E9492258C2F0E941E25B6CF1D
:1039400080E28C0F883048F4C77081E001C0880F96
:10395000CA95EAF70E944625A9CFEBE5EC0FE330C4
:1039600040F4F0E0ED5EFD4F808190E0CF910C944B
:103970001F1BE8E5EC0FE73150F4F0E0EE0FFF1FFE
:10398000EB51FE4F80819181CF910C94351BC03F4C
:1039900030F08C2F0E946C28CF910C945729CF9136
:1039A0000895882309F452C0823871F40E94FA1AEB
:1039B00081FF4CC089E30E941E250E94922589E365
:1039C0000E9425250C949225833859F40E94FA1AF6
:1039D00080FF3CC083E50E941E250E94922583E55E
:1039E000EFCF843859F40E94FA1A82FF2FC087E47F
:1039F0000E941E250E94922587E4E2CF9CEF980F3B
:103A0000913AF0F290E2980F983050F4877091E07C
:103A100001C0990F8A95EAF7892F0E944C25D2CFD1
:103A20009BE5980F933020F490E080E00C941F1BEE
:103A300098E5980F973120F490E080E00C94351BC6
:103A4000803F20F00E94D4280C9457290895CF93EA
:103A5000C82F0E943A1CC93349F42FEF87EE93E038
:103A6000215080409040E1F700C000008C2FCF91A2
:103A70000C94D11C882321F00E9446250C94922599
:103A80000895882321F00E944C250C9492250895D6
:103A9000BF92CF92DF92EF92FF920F931F93CF933B
:103AA000DF936C01D62FC72FFC01058102950F70A3
:103AB000128111110E9466250E943C25E82E882360
:103AC00091F01123D1F08C2F807F803421F080E29F
:103AD0008D0F883090F082E00E94DD250E943C2509
:103AE00091E0E82EE926BC2EB2949FE0B922EB2D9E
:103AF000F0E0ED54FD4C0C949631E12CF4CF0C2FFA
:103B00000F70C07F11F00295007F1123A9F00023F0
:103B100059F080E28D0F883010F0D11109C0802F4C
:103B20000E9446250E9492258D2F0E943A1C14C0A7
:103B3000802F0E945925F6CF8D2F0E94D11C002383
:103B400059F080E28D0F883010F0D1112CC0802FF9
:103B50000E944C250E9492252B2D2850330B243097
:103B6000310520F40E94FA1A0E94E806EE2009F4BA
:103B70009EC10E94382580FD9AC1F60112820E94E2
:103B800032250E94BE23C6010E94781F0E94322562
:103B9000DF91CF911F910F91FF90EF90DF90CF9029
:103BA000BF900C94DF23802F0E945F25D3CFFC2F82
:103BB000FF70FF2EC07FC03219F0F29480EFF82220
:103BC000DD2369F0D13049F1112391F1002351F146
:103BD000F601858180FFA8CF8F70858323C01123D4
:103BE00081F0011106C00E9479258F290E943A1D9B
:103BF000B3CF0130C1F70E9479258F290E947F251C
:103C0000ABCF011106C00E9488258F2D0E94411D57
:103C1000A3CF013009F4A0CFF6CF112329F006304D
:103C200008F09ACF8F2DE2CF053008F095CFEDCF79
:103C3000002359F3D93349F4FFEF27EE33E0F15075
:103C400020403040E1F700C000008D2F0E94D11CC1
:103C500083CF8C2F86958695837069F0813009F02B
:103C60007BCF8D2F9C2F9370111102C090E080E0CC
:103C70000E94351B71CF8D2F9C2F9370111102C0A4
:103C800090E080E00E941F1B67CF8D2F112329F049
:103C90000E946C280E9457295FCF0E94D428FACF37
:103CA0008C2F837009F041C0111156CF4D2F4295D2
:103CB00046954770440F440F0D2F0F7010E030E011
:103CC00020E0042E04C0000F111F221F331F0A948E
:103CD000D2F760E070E0CB01D4FF0FC06FE070E07E
:103CE00080E090E004C0660F771F881F991F4A95F7
:103CF000D2F76095709580959095C695C695C370DE
:103D0000602B712B822B932BC23049F058F4C130B9
:103D100019F00E94702320CF0E945E231DCF0E94C5
:103D200082231ACF0E945C2317CF8695112311F0AE
:103D30008C2F8170882309F40FCF4D2F4295469523
:103D40004770440F440F0D2F0F7010E030E020E05B
:103D5000042E04C0000F111F221F331F0A94D2F734
:103D600060E070E0CB01D4FF0FC06FE070E080E056
:103D700090E004C0660F771F881F991F4A95D2F7FD
:103D80006095709580959095C695C695C370602B8B
:103D9000712B822B932BC23049F058F4C13019F0AB
:103DA0000E943524D9CE0E942324D6CE0E944724D7
:103DB000D3CE0E949823D0CECF70112329F08C2F20
:103DC0000E94BE238D2F12CF8D2F0E94411D8C2F5C
:103DD0000E94DF23C1CED23F89F160F4D03FC9F009
:103DE000D13F29F1112309F442C001119DCE8C2F3E
:103DF0008F7121C0D33F39F1D43FA1F7112369F16D
:103E0000CF718C2F0E94BE2363E08C2F0E94C825A7
:103E1000A3CE112341F0053008F09ECE8C2F8F7178
:103E20000E94022499CE063008F096CEF7CF8C2F50
:103E30008F71112369F20E94BE238ECE8C2F8F7159
:103E40001123C9F3C5CF112329F08C2F8F710E9444
:103E5000A92382CE0E94A4237FCE81E00E94DD258B
:103E6000023008F479CE82E00E94DD2575CE002371
:103E700059F0D93309F0E9CE8FEF97EEE3E08150A6
:103E80009040E040E1F7DFCE8C2F8F71A1CF4C2F17
:103E90004F706D2FC6010E943D040E94D4225CCE5B
:103EA0004C2F4F706D2FC6010E94F00655CEDF914A
:103EB000CF911F910F91FF90EF90DF90CF90BF9027
:103EC00008950F931F93CF93DF93EC01688179815D
:103ED0008A810E94FA248C010E9459240E945B234B
:103EE000B801CE01DF91CF911F910F910C94481D25
:103EF000CF93DF93EC018B819C81892B29F0888102
:103F0000998189238F3F59F4DF91CF910895CE0194
:103F10000E94611FCE01DF91CF910C94AF05CE01BD
:103F20000E948F068111F3CF0E943C25882361F304
:103F30008A81882349F382E0DF91CF910C94DD25BB
:103F4000882321F00E9459250C94922508958823F6
:103F500021F00E945F250C94922508950E94662509
:103F60000E9476250E9492250E947E2A0E9457294F
:103F700090E080E00E941F1B90E080E00C94351BD5
:103F80000E942C250C94AE1F0E9453250C94C01F38
:103F9000E92FE295EF70E250EE3070F4F0E0ED536F
:103FA000FD4C0C949631803F19F020F4883E20F4AB
:103FB00081E00895843FE1F380E00895883EC0F3F6
:103FC000813FD1F7F5CF93FB882780F908950E94B0
:103FD000F0240C94C81FCF93DF9300D000D00F9231
:103FE000CDB7DEB70F900F900F900F900F90DF912D
:103FF000CF910895CF93DF9300D000D000D0CDB7FC
:10400000DEB726960FB6F894DEBF0FBECDBFDF91A8
:10401000CF9108951F93CF93DF93C091AB0216E029
:104020008091AC028C1304C0DF91CF911F91089551
:10403000D0E01C9FF0011D9FF00D1124E355FD4FB2
:104040004081518162817381848195810E94FA1F30
:104050002196C770E5CF4091DD025091DE0260915C
:10406000DF027091E0028091E1029091E2020C94F3
:10407000FA1F1F93CF93DF938091E202807FA9F410
:104080008091DF02882389F08091AB02C091AC025D
:104090006091DD027091DE02A091E002B091E10238
:1040A000D62FD72316E0C81304C0DF91CF911F91FC
:1040B000089590E0109711F0DF3F19F40196877092
:1040C000F2CF189F9001199F300D1124F901E3558B
:1040D000FD4F41814713F2CF40814613EFCF42811C
:1040E0004111ECCF438154814A1B5B0B4A3F510580
:1040F00028F78091E2028F7080618093E202F901DB
:10410000EE54FD4F80818F70806180838DED92E051
:104110000E94781FDF91CF911F910C940A20AF92DB
:10412000BF92CF92DF92EF92FF920F931F93CF93A4
:10413000DF93CDB7DEB761970FB6F894DEBF0FBE41
:10414000CDBF8C0185E0F801DE011D9601900D9236
:104150008A95E1F7F80140815181E2808DEDC82E0A
:1041600082E0D82E6091E0027091E1026115710544
:1041700009F461C19091DD022091DE02892F822332
:104180008F3F09F458C1A380B480F090DF02F5019D
:10419000E61BF70BFF2009F4FCC08091E202382FE8
:1041A000307FEA3FF10508F0B2C0311179C0FE2C32
:1041B000251323C0941321C0E1101FC08F708061AC
:1041C0008093E2020E942B20C6010E94781F8091FA
:1041D000E202F80185838F2D61960FB6F894DEBF59
:1041E0000FBECDBFDF91CF911F910F91FF90EF9048
:1041F000DF90CF90BF90AF900895AB2829F0842F27
:1042000085238F3F09F033C180E0F82FF170DF2E56
:1042100080FF3CC08091AB022091AC0236E082135B
:1042200015C04D875E878D859E850E94F024292FBD
:1042300022952F702230F0F0243018F59F70F1F0A5
:10424000F8019581907FD1F4D12C1EC090E0389F69
:10425000F001399FF00D1124E355FD4F6181651385
:1042600006C06081641303C062816E110FC00196A5
:104270008770D5CF9F7011F0882331F3805E88302E
:1042800018F3C8010E94781FFD2CA5CFEE2009F479
:10429000A2CF8091E20281608093E202F12C9BCF59
:1042A000251306C0941304C0F801EE2009F48DC054
:1042B0004D875E878D859E850E94E71F882319F1B3
:1042C000EE2009F18091E202803270F02091DD024F
:1042D0003091DE0238872F831986BB86AA868C87A9
:1042E000CE0107960E94781F86E0F801ADEDB2E09E
:1042F00001900D928A95E1F70E9439200E942B20AF
:10430000FF24F39468CFC8010E94781FF9CF3111C0
:1043100013C07A2DB98AA88A6E2D89890E94EB1F55
:104320008DED92E00E94781F86E0F60111928A9549
:10433000E9F70E942B20B2CF25130FC094130DC0B4
:10434000E1100BC0F8018583C8010E94781F86E048
:10435000F60111928A95E9F73ECF4D875E878D85EC
:104360009E850E94E71F882371F2EE2061F2809102
:10437000E202803208F4B8CF2091DD023091DE02F3
:104380003A8329831B82BD82AC828E83CE01019643
:10439000A9CFEA3FF10508F041C0FE2CEE2009F458
:1043A000B2CF25132AC0941328C08091E20280FD69
:1043B0001BC0982F907FC1F0F8018583903F31F0AA
:1043C000982F907F905F8F70892B8583C8010E9402
:1043D000781F86E0F801ADEDB2E001900D928A956C
:1043E000E1F70E942B20F7CE86E0F801ADEDB2E0B8
:1043F00001900D928A95E1F7EECE4D875E878D850F
:104400009E850E94E71F81116FCF8091E20281603B
:104410008093E202C8010E94781FDDCE7A2DB98A0E
:10442000A88A6E2D89890E94EB1F86E0F601119201
:104430008A95E9F7D6CFEE2009F465CF4D875E87E0
:104440008D859E850E94E71FF82E882309F45BCF97
:1044500086E0F801ADEDB2E001900D928A95E1F7AA
:104460008DED92E00E94351C0E943920BACF81E088
:104470008E25CBCE1F93CF93DF93CDB7DEB72C978E
:104480000FB6F894DEBF0FBECDBF4F835887698744
:104490007A878B879C87CE0107960E948F2088237E
:1044A00069F08A859B85892B39F04F815885842F47
:1044B00085238F3F09F071C016E05FC086E0FE01E2
:1044C0003796DE01119601900D928A95E1F78A8563
:1044D0009B85892B89F38F81988589238F3F61F391
:1044E0002091AC0230E0C901019687709927409174
:1044F000AB024817190671F40E94C41F1092AC0257
:104500001092AB0286E0EDEDF2E0DF011D928A959C
:10451000E9F7D2CF96E0929FD001939FB00D11247E
:10452000A355BD4FFE01319601900D929A95E1F78A
:104530008093AC020E940A20BFCF819FC00111244A
:1045400083559D4F0E948F208823E9F0E091AB02B4
:104550001E9FF0011124E355FD4F4081518162817E
:104560007381848195810E94FA1F8091AB0290E053
:104570000196877099278093AB028091AB0290914E
:10458000AC028913DACF2C960FB6F894DEBF0FBEBB
:10459000CDBFDF91CF911F91089569857A858B8575
:1045A0009C850E94FA1F88CFEF92FF920F931F9372
:1045B000CF93DF938C01892B81F0F12CEE24E394CF
:1045C000E8012196F8018491843770F4843008F072
:1045D0005FC08130B1F08230A1F1DF91CF911F91A6
:1045E0000F91FF90EF900895853709F44CC008F4BF
:1045F0003DC09CE7980F903780F78F770E94D11CC1
:1046000049C00E5F1F4FFE01849190E2980F9830D1
:1046100060F48770FE2D01C0FF0F8A95EAF78F2F97
:104620000E9469250E94922502C00E943A1C8F2D8B
:10463000815030F2EFE9FFE03197F1F700C0000060
:10464000F7CF0E5F1F4FFE01849190E2980F9830D4
:1046500050F48770FE2D01C0FF0F8A95EAF78F2F67
:104660000E946F25DFCF0E94D11CE1CF0E5F1F4F4C
:10467000FE01C491C150D8F28FE99FE00197F1F794
:1046800000C00000F7CF0E5F1F4FFE01F490CFCFA8
:104690000E943A1C8E01CBCF08950C944C230E94AB
:1046A0004D23609314037093150380931603909326
:1046B00017030C94AE1F08950C944F230F931F9370
:1046C00000911403109115032091160330911703E4
:1046D000602B712B822B932B1F910F910C944F23E6
:1046E0000F931F930091140310911503209116034B
:1046F0003091170360237123822393231F910F911D
:104700000C944F230F931F930091140310911503E2
:104710002091160330911703602771278227932772
:104720001F910F910C944F230C944C230C949423C1
:104730000E949623609310037093110380931203D9
:10474000909313030C94AE1F60E070E0CB010C94C7
:1047500098230F931F9341E050E060E070E08A01DE
:104760009B0104C0000F111F221F331F8A95D2F72F
:10477000C901B8011F910F910C9498230F931F93B7
:1047800041E050E060E070E004C0440F551F661F38
:10479000771F8A95D2F78091100390911103A09111
:1047A0001203B09113038A019B01082B192B2A2BAA
:1047B0003B2BC901B8011F910F910C9498230F93C3
:1047C0001F9341E050E060E070E004C0440F551FCB
:1047D000661F771F8A95D2F7CB01BA016095709555
:1047E0008095909500911003109111032091120370
:1047F0003091130360237123822393231F910F9120
:104800000C9498230F931F9341E050E060E070E018
:1048100004C0440F551F661F771F8A95D2F78091F9
:10482000100390911103A0911203B09113038A0118
:104830009B01082719272A273B27C901B8011F9187
:104840000F910C9498230F931F93009110031091D4
:1048500011032091120330911303602B712B822BD3
:10486000932B1F910F910C9498230F931F930091FA
:104870001003109111032091120330911303602350
:104880007123822393231F910F910C9498230F93EC
:104890001F93009110031091110320911203309186
:1048A000130360277127822793271F910F910C9480
:1048B0009823089527E0929F800D1124982F9770D8
:1048C00041E001C0440F9A95EAF786958695869552
:1048D00095E0899FF0011124ED51FD4F90E080E0BB
:1048E00070E05191DF0111979B01082E02C03695AF
:1048F00027950A94E2F7217021952527242325275F
:104900002C9301968530910561F7089527E0929FD9
:10491000800D1124982F977086958695869525E0B1
:10492000829FF0011124ED51FD4F50E040E080E006
:10493000219130E0092E02C0369527950A94E2F7BE
:1049400021703327042E01C0220F0A94EAF7822B2C
:104950004F5F5F4F4530510559F70895BF92CF9291
:10496000DF92EF92FF920F931F93CF93DF938C010F
:10497000C0901003D0901103E0901203F090130345
:104980008091140390911503A0911603B091170321
:10499000C82AD92AEA2AFB2ACFE1D0E0BC2ED701C7
:1049A000C6010C2E04C0B695A795979587950A94D5
:1049B000D2F780FD0EC0219788F7B12C8B2DDF91A7
:1049C000CF911F910F91FF90EF90DF90CF90BF900C
:1049D0000895B8018C2F0E940D07019761F3EECF67
:1049E000CF93DF93EC010E94AE24BE01DF91CF9103
:1049F0000C940D071F93CF93DF93EB019091AA02C4
:104A0000992331F0CB01DF91CF911F910C94F024C9
:104A1000882379F0CB010E94AE24182F682FCE0195
:104A20000E945A24BE01812FDF91CF911F910C94D7
:104A30000D07CB010E948624182FF4CF682F809198
:104A4000590190915A010C94E826682F80915901E0
:104A500090915A010C94EA268091590190915A0143
:104A60000C94EC268091180385958595859508957D
:104A7000809118038770089590911803977081E0D2
:104A800009F480E00895809124030895909124030F
:104A9000892B809324030895809590912403982373
:104AA0009093240308951092240308958091230382
:104AB000089590912303892B809323030895809573
:104AC0009091230398239093230308951092230336
:104AD000089590912203892B809322030895809555
:104AE0009091220398239093220308951092220319
:104AF000089580911903089508950C947C25909150
:104B00001903981721F0809319030C947D250895BB
:104B100080911903882329F01092190380E00C94E6
:104B20007D250895E0915901F0915A018091240367
:104B30008083E0915901F0915A0180819091230383
:104B4000892B8083E0915901F0915A0180819091E5
:104B50002203892B808390911903992381F0E0919E
:104B60005901F0915A018081892B808380915901EC
:104B700090915A010E94A02681110E94882580915F
:104B8000590190915A010C94061B08950C94C52567
:104B900098E0899F90011124622B609318030E9472
:104BA000BE23809118038595859585950C94C6251F
:104BB0001092180380E00C94C625909118038095FC
:104BC000892380931803282F277071F4282F082E2B
:104BD000000C330B9217130639F085958595859552
:104BE0000E94DF230C94D825089590E080E00E9475
:104BF000443221E08C3E9E4F09F020E0822F089540
:104C000082E090E00C94363283E090E00C943632EF
:104C1000CF9384E090E00E943632C82F81E290E08A
:104C20000E943632982F8C2FCF910895CF93C92FA1
:104C3000682F84E090E00E944A326C2F81E290E07D
:104C4000CF910C944A32AB01BC018FE090E00C9400
:104C50005C32AB01BC0183E190E00C945C3260E01B
:104C600070E0CB010C94292660E070E0CB010E943B
:104C700023260C942F266CEE7EEF90E080E00E94BD
:104C8000683260E082E090E00E944A3260E083E0B7
:104C900090E00E944A321092140310921503109271
:104CA00016031092170360E084E090E00E944A32FD
:104CB00060E081E290E00E944A3260E085E090E0AE
:104CC0000E944A3260E086E090E00E944A326FEF34
:104CD00087E090E00E944A3240E050E0BA0188E06C
:104CE00090E00E945C3260E08DE090E00E944A32E9
:104CF00040E050E0BA0188E190E00E945C3260E060
:104D000087E190E00E944A3240E050E0BA018CE135
:104D100090E00E945C3260E080E290E00E944A32C3
:104D200040E050E0BA0188E190E00E945C320C94CF
:104D300034260C943B26682F8EE090E00C944A3287
:104D40009C012E5F3F4FAC01485F5F4F80E024170E
:104D5000350709F40895F90191919F019923B9F359
:104D60008F5FF5CF662349F0FC01329608962191BA
:104D7000261729F0E817F907D1F780E0089581E0B8
:104D800008959C01FC0132969FEF80E04191461707
:104D900051F09F3F19F4411101C0982F8F5F863069
:104DA000A9F79F3F09F40895290F311D97FD3A9502
:104DB000F90162830895FC01329608962191261329
:104DC00003C0DF0111971C92E817F907B9F708959E
:104DD0000C94C1260C94DB26029626E0FC0111926D
:104DE0002A95E9F70895089508950C94F4260E94F1
:104DF000F52680918D03843049F11092260388E1D5
:104E000090E020E40FB6F894A895809360000FBE60
:104E10002093600080E00E94E8060E94F52683B798
:104E2000817F846083BF83B7816083BF78948895D6
:104E300083B78E7F83BF0FB6F894A89580916000EA
:104E4000886180936000109260000FBE08950895FD
:104E5000CF930E94F3260E948A090E942727C0E070
:104E60008C2F0E94FF08811105C0CF5FCA30C1F7A7
:104E7000CF91089581E0FCCF08950C943C270E94C7
:104E8000C41F0E94FA1A0E94E8060C943D271F9244
:104E90001FB61F9211248F939F93AF93BF9380915E
:104EA0002603811113C08091830390918403A09104
:104EB0008503B09186034196A11DB11D80938303A4
:104EC00090938403A0938503B0938603BF91AF9121
:104ED0009F918F911F901FBE1F90189582E084BDF7
:104EE00093E095BD9AEF97BD80936E0008952FB71C
:104EF000F8948091830390918403A0918503B091ED
:104F000086032FBF08959C014FB7F89480918303C7
:104F100090918403A0918503B09186034FBF821BBB
:104F2000930B089578941F921FB61F9211248F93AC
:104F30009F93AF93BF938091830390918403A0913B
:104F40008503B09186030196A11DB11D8093830353
:104F500090938403A0938503B0938603BF91AF9190
:104F60009F918F911F901FBE1F90189587E797E71D
:104F7000909301088093000888E19AE00FB6F894B6
:104F8000A895809360000FBE90936000FFCF0E94B1
:104F9000F525811102C00E9499260E940026809367
:104FA00025030E94082690938803809387030E941C
:104FB0000426682F70E090E080E00E945C236091FE
:104FC00010037091110380911203909113030C94BC
:104FD000962380912D0380FF12C06091600185E0CF
:104FE000689FB00111247595679575956795603830
:104FF0007105A8F561157105A1F1862F089581FF4E
:1050000009C06091600185E0689FB0011124759529
:105010006795EDCF6091600182FD0AC080912C03FD
:105020008823D1F090915F0160916001891728F089
:1050300085E0689FB0011124DACF869FB00111246A
:1050400085E0869F9001879F300D1124692F70E0C5
:10505000C9010E946031CBCF65E070E0CECF8FE711
:10506000089581E0089580912D0380FF0CC0609128
:105070005C0170E07595679575956795611571058B
:1050800049F1862F089581FF06C060915C0170E0B0
:1050900075956795F3CF60915C0182FD0BC090918F
:1050A0002B039923A1F060915B0180915C0196171D
:1050B00038F0682F70E06038710500F38FE70895CD
:1050C000899FC001112470E00E946031F4CF61E03B
:1050D00070E0D7CF81E00895803F31F40E94E92746
:1050E0008195809331030895813F19F40E94E92747
:1050F000F8CF823F31F40E94E927819580933003F5
:105100000895833F19F40E94E927F8CF893F29F4D5
:105110000E9433288093320308958A3F21F40E942D
:1051200033288195F7CF8B3F31F40E943328819546
:105130008093330308958C3F19F40E943328F8CFED
:10514000843F31F480912F03816080932F03089571
:10515000853F21F480912F038260F7CF863F21F4B1
:1051600080912F038460F1CF873F21F480912F033A
:105170008860EBCF883F21F480912F038061E5CFD9
:105180008D3F31F480912D03816080932D0308952C
:105190008E3F21F480912D038260F7CF8F3FB9F7C6
:1051A00080912D038460F1CF90913003803F59F4BA
:1051B0008091310387FF0DC01092310391110BC014
:1051C00010922C0308C0813F81F48091310318169E
:1051D0009CF3992381F08091320390913303892BC2
:1051E00009F064C010922B030895823F49F497FFA1
:1051F000F0CF10923003809131038111ECCFE0CFDA
:10520000833F19F41916ACF3E4CF20913203893FA0
:1052100029F41216F4F610923203DBCF8A3F19F408
:1052200027FFD7CFF8CF209133038B3F29F427FFF7
:10523000D0CF10923303CDCF8C3F19F41216CCF39C
:10524000C8CF843F31F480912F038E7F80932F034A
:10525000C0CF853F21F480912F038D7FF7CF863F0C
:1052600021F480912F038B7FF1CF873F21F4809130
:105270002F03877FEBCF883F21F480912F038F7E10
:10528000E5CF8D3F31F480912D038E7F80932D03E8
:10529000A0CF8E3F21F480912D038D7FF7CF8F3FDC
:1052A00009F097CF80912D038B7FF0CF08950E9456
:1052B00077279C019091300380913103982B21F046
:1052C00030932A0320932903909132038091330372
:1052D000982B21F030932803209327038EE293E04C
:1052E0000C94111BEF92FF920F931F93CF93DF93B8
:1052F00000D000D000D0CDB7DEB786E0EEE2F3E01C
:10530000DE01119601900D928A95E1F7E09030034D
:10531000F090310300913203109133031092300367
:105320001092310310923203109233038E2D8F2985
:1053300091F08091290390912A030E948327AC0168
:1053400090912C03992309F43FC080916101841747
:10535000150608F447C0802F812B91F08091270318
:10536000909128030E948327AC0190912B039923ED
:1053700009F477C080915D018417150608F47FC099
:105380008091300390913103892B90913203892BC6
:1053900090913303892B11F00E94572986E0FE017A
:1053A0003196AEE2B3E001900D928A95E1F7269630
:1053B0000FB6F894DEBF0FBECDBFDF91CF911F9126
:1053C0000F91FF90EF900895209162018AE0289F4D
:1053D000900111242417350708F0BDCF9F5F9093EB
:1053E0002C0302C09F3FD1F7EE2059F00E94E9271D
:1053F0009FEF1E140CF491E0899F802D112480935F
:105400003003FF2059F00E94E9279FEF1F140CF48E
:1054100091E0899F802D11248093310330913003D6
:10542000332309F498CF20913103222309F493CF39
:1054300045EB3403C0011124992359F090933003B4
:1054400045EB240390011124332339F030933103C9
:1054500082CF81E080933003F3CF81E080933103EA
:105460007ACF20915E018AE0289F900111242417B1
:10547000350708F085CF9F5F90932B0302C09F3FB5
:10548000D1F7002359F00E9433289FEF10160CF437
:1054900091E0899F802D112480933203112359F0CC
:1054A0000E9433289FEF11160CF491E0899F802D04
:1054B00011248093330330913203332309F460CFF6
:1054C00020913303222309F45BCF45EB3403C00161
:1054D0001124992359F09093320345EB2403900152
:1054E0001124332339F0309333034ACF81E0809382
:1054F0003203F3CF81E08093330342CF86E0EEE2C4
:10550000F3E0DF011D928A95E9F710922C031092C7
:105510002B0310922D03089580913C030895CF939F
:10552000DF9300D00F92CDB7DEB790918D0394300A
:1055300019F589837B836A8382E08093E9008FEF8A
:105540009091E800815095FD06C095ED9A95F1F790
:1055500000008111F5CF8091E80085FF0DC050E07B
:1055600040E063E070E0CE0101960E94A12C8091A2
:10557000E8008E778093E8000F900F900F90DF91F6
:10558000CF910895BC0184E00C948F2ABC0183E084
:105590000C948F2A9C0182E08093E9009FEF809118
:1055A000E800915085FD06C085ED8A95F1F7000071
:1055B0009111F5CF8091E80085FF0CC050E040E0EC
:1055C00066E070E0C9010E94A12C8091E8008E770E
:1055D0008093E8000895CF93DF93EC0181E08093FE
:1055E000E9008FEF9091E800815095FD06C095EDA0
:1055F0009A95F1F700008111F5CF8091E80085FFC1
:1056000014C050E040E068E070E0CE010E94A12CA0
:105610008091E8008E778093E80088E0FE01A4E3A3
:10562000B3E001900D928A95E1F7DF91CF91089553
:1056300080918C03811109C00E94312E0E948E2E10
:105640008091E20084608093E200089510928C03C0
:105650000895089508950C943F2742E061EC81E09D
:105660000E94AD2D42E261EC82E00C94AD2D809160
:105670008F03833009F45FC030F48130C1F1823090
:1056800009F49BC008958A3009F487C08B3009F46F
:105690006DC0893009F04EC080918E03813209F0CF
:1056A00049C08091920390919303029708F042C001
:1056B0008091E800877F8093E8008091E80082FF76
:1056C00035C09091F3008091F200029729F4809107
:1056D000F1008B7F813021F48091F10080933C03B5
:1056E0008091E8008B778093E8000C94E12D809105
:1056F0008E03813AF9F48091E800877F8093E80077
:105700008091920390919303892B61F468E084E384
:1057100093E070E00E94F02C8091E8008B778093FA
:10572000E800089560E090E080E0F3CF80918D0381
:105730008111C3CF089580918E03813AD9F780916A
:10574000920390919303892BA9F78091E800877FBA
:105750008093E8008091E80080FFFCCF80916D018C
:105760008093F1008091E8008E77BDCF80918E0309
:10577000813201F78091920390919303892BD1F6A6
:105780008091E800877F8093E8000E94E12D80915E
:10579000900380936D010C94C41F80918E0381321D
:1057A00049F68091E800877F8093E8000E94E12D10
:1057B0008091910380933D03089580918E03813AF7
:1057C00009F0B8CF8091E800877F8093E80080914E
:1057D000E80080FFFCCF80913D03C2CF84B7877F74
:1057E00084BF0FB6F894A89580916000886180937B
:1057F0006000109260000FBE80E890E00FB6F89451
:1058000080936100909361000FBE0E94591B0E941B
:10581000312E0E948E2E8091E20084608093E200FF
:1058200078940E9417310E94631B83E691E00E94E6
:10583000F51A80918D03853039F00E946D1B0E940E
:10584000611B0E94621BF5CF0E94F72680918B039B
:10585000882379F30E942827882359F30E948B2CF0
:10586000E8CF0C94332C292F33272330310519F13D
:1058700068F42130310509F444C02230310509F4BF
:1058800045C090E080E030E020E025C021323105C5
:1058900049F122323105A9F780E490E023EA37E0AC
:1058A00061157105C1F081E890E022E237E06130D6
:1058B000710589F0E6CF99278130910581F0009735
:1058C00029F00297F1F6E3E9F6E002C0E1EDF6E037
:1058D000849190E09F01FA01318320830895EBEBDE
:1058E000F6E0F6CF89E090E027EE36E0611571052D
:1058F00091F389E090E020E037E06130710559F3E1
:10590000C0CF82E190E020E137E0E5CF8BE390E08B
:1059100025ED36E0E0CF80E189BD82E189BD09B4A3
:1059200000FEFDCF8091D8008F7D8093D8008091BC
:10593000E00082608093E0008091E00081FDFCCF78
:105940000895AF92BF92CF92DF92FF920F931F9371
:10595000CF93DF936C01EB018A010E94002EF82E99
:10596000811123C00115110539F0F8018081918161
:10597000C81BD90BC80ED91EB12CA12C2097A9F099
:105980008091E80085FD22C08091E8008E778093A9
:10599000E80001151105A1F0F80180819181A80EA0
:1059A000B91EB182A08285E0F82E8F2DDF91CF91B4
:1059B0001F910F91FF90DF90CF90BF90AF9008950F
:1059C0000E94002E8823D1F2F82EEFCFF6018191AC
:1059D0006F018093F1002197FFEFAF1ABF0ACECF7E
:1059E000FC01809194039091950386179707A0F08E
:1059F0006115710529F49091E8009E779093E80075
:105A000090E06115710551F4911108C08091E80092
:105A100082FF34C080E00895BC01F2CF80918D03F5
:105A20008823C1F18530C1F18091E80083FD30C049
:105A30008091E80082FDEACF8091E80080FFE1CF0D
:105A40008091F3002091F200382F6115710519F053
:105A50002830310558F091E02830310509F090E008
:105A60002091E8002E772093E800CBCF819180939E
:105A7000F100615071092F5F3F4FE7CF80918D0397
:105A8000882341F0853041F08091E80083FFBECF4C
:105A900081E0089582E0089583E00895FC018091FB
:105AA00094039091950386179707A0F061157105EF
:105AB00029F48091E8008E778093E80090E06115EA
:105AC000710551F4911108C08091E80082FF35C042
:105AD00080E00895BC01F2CF80918D038823C9F145
